{
  "contractName": "productTrace",
  "abi": [
    {
      "inputs": [],
      "stateMutability": "nonpayable",
      "type": "constructor"
    },
    {
      "anonymous": false,
      "inputs": [
        {
          "indexed": false,
          "internalType": "uint256",
          "name": "id",
          "type": "uint256"
        },
        {
          "indexed": false,
          "internalType": "bool",
          "name": "done",
          "type": "bool"
        }
      ],
      "name": "ToggledDone",
      "type": "event"
    },
    {
      "anonymous": false,
      "inputs": [
        {
          "indexed": false,
          "internalType": "uint256",
          "name": "id",
          "type": "uint256"
        },
        {
          "indexed": false,
          "internalType": "string",
          "name": "product",
          "type": "string"
        },
        {
          "indexed": false,
          "internalType": "string",
          "name": "amount",
          "type": "string"
        },
        {
          "indexed": false,
          "internalType": "string",
          "name": "code",
          "type": "string"
        },
        {
          "indexed": false,
          "internalType": "string",
          "name": "size",
          "type": "string"
        },
        {
          "indexed": false,
          "internalType": "string",
          "name": "color",
          "type": "string"
        },
        {
          "indexed": false,
          "internalType": "string",
          "name": "description",
          "type": "string"
        },
        {
          "indexed": false,
          "internalType": "bool",
          "name": "done",
          "type": "bool"
        },
        {
          "indexed": false,
          "internalType": "uint256",
          "name": "createdAt",
          "type": "uint256"
        }
      ],
      "name": "productCreated",
      "type": "event"
    },
    {
      "inputs": [],
      "name": "counter",
      "outputs": [
        {
          "internalType": "uint256",
          "name": "",
          "type": "uint256"
        }
      ],
      "stateMutability": "view",
      "type": "function",
      "constant": true
    },
    {
      "inputs": [
        {
          "internalType": "uint256",
          "name": "",
          "type": "uint256"
        }
      ],
      "name": "products",
      "outputs": [
        {
          "internalType": "uint256",
          "name": "id",
          "type": "uint256"
        },
        {
          "internalType": "string",
          "name": "product",
          "type": "string"
        },
        {
          "internalType": "string",
          "name": "amount",
          "type": "string"
        },
        {
          "internalType": "string",
          "name": "code",
          "type": "string"
        },
        {
          "internalType": "string",
          "name": "size",
          "type": "string"
        },
        {
          "internalType": "string",
          "name": "color",
          "type": "string"
        },
        {
          "internalType": "string",
          "name": "description",
          "type": "string"
        },
        {
          "internalType": "bool",
          "name": "done",
          "type": "bool"
        },
        {
          "internalType": "uint256",
          "name": "createdAt",
          "type": "uint256"
        }
      ],
      "stateMutability": "view",
      "type": "function",
      "constant": true
    },
    {
      "inputs": [
        {
          "internalType": "string",
          "name": "_product",
          "type": "string"
        },
        {
          "internalType": "string",
          "name": "_amount",
          "type": "string"
        },
        {
          "internalType": "string",
          "name": "_code",
          "type": "string"
        },
        {
          "internalType": "string",
          "name": "_size",
          "type": "string"
        },
        {
          "internalType": "string",
          "name": "_color",
          "type": "string"
        },
        {
          "internalType": "string",
          "name": "_description",
          "type": "string"
        }
      ],
      "name": "createProduct",
      "outputs": [],
      "stateMutability": "nonpayable",
      "type": "function"
    },
    {
      "inputs": [
        {
          "internalType": "uint256",
          "name": "_id",
          "type": "uint256"
        }
      ],
      "name": "toggleDone",
      "outputs": [],
      "stateMutability": "nonpayable",
      "type": "function"
    }
  ],
  "bytecode": "0x6080604052600080553480156200001557600080fd5b506200016a6040518060400160405280600681526020017f43616d69736100000000000000000000000000000000000000000000000000008152506040518060400160405280600181526020017f35000000000000000000000000000000000000000000000000000000000000008152506040518060400160405280600581526020017f43413030310000000000000000000000000000000000000000000000000000008152506040518060400160405280600381526020017f58584c00000000000000000000000000000000000000000000000000000000008152506040518060400160405280600481526020017f417a756c000000000000000000000000000000000000000000000000000000008152506040518060400160405280600b81526020017f4d616e676120436f7274610000000000000000000000000000000000000000008152506200017060201b60201c565b6200065f565b6000808154809291906200018490620005a2565b919050555060405180610120016040528060005481526020018781526020018681526020018581526020018481526020018381526020018281526020016000151581526020014281525060016000805481526020019081526020016000206000820151816000015560208201518160010190805190602001906200020a92919062000328565b5060408201518160020190805190602001906200022992919062000328565b5060608201518160030190805190602001906200024892919062000328565b5060808201518160040190805190602001906200026792919062000328565b5060a08201518160050190805190602001906200028692919062000328565b5060c0820151816006019080519060200190620002a592919062000328565b5060e08201518160070160006101000a81548160ff02191690831515021790555061010082015181600801559050507f54738752622eabadb0a13ad49ae49a3dc52bbbb94b00273966b8f6f9afda8eec60005487878787878760004260405162000318999897969594939291906200043b565b60405180910390a1505050505050565b82805462000336906200056c565b90600052602060002090601f0160209004810192826200035a5760008555620003a6565b82601f106200037557805160ff1916838001178555620003a6565b82800160010185558215620003a6579182015b82811115620003a557825182559160200191906001019062000388565b5b509050620003b59190620003b9565b5090565b5b80821115620003d4576000816000905550600101620003ba565b5090565b620003e38162000520565b82525050565b6000620003f68262000504565b6200040281856200050f565b93506200041481856020860162000536565b6200041f816200064e565b840191505092915050565b62000435816200052c565b82525050565b60006101208201905062000453600083018c6200042a565b818103602083015262000467818b620003e9565b905081810360408301526200047d818a620003e9565b90508181036060830152620004938189620003e9565b90508181036080830152620004a98188620003e9565b905081810360a0830152620004bf8187620003e9565b905081810360c0830152620004d58186620003e9565b9050620004e660e0830185620003d8565b620004f66101008301846200042a565b9a9950505050505050505050565b600081519050919050565b600082825260208201905092915050565b60008115159050919050565b6000819050919050565b60005b838110156200055657808201518184015260208101905062000539565b8381111562000566576000848401525b50505050565b600060028204905060018216806200058557607f821691505b602082108114156200059c576200059b6200061f565b5b50919050565b6000620005af826200052c565b91507fffffffffffffffffffffffffffffffffffffffffffffffffffffffffffffffff821415620005e557620005e4620005f0565b5b600182019050919050565b7f4e487b7100000000000000000000000000000000000000000000000000000000600052601160045260246000fd5b7f4e487b7100000000000000000000000000000000000000000000000000000000600052602260045260246000fd5b6000601f19601f8301169050919050565b611177806200066f6000396000f3fe608060405234801561001057600080fd5b506004361061004c5760003560e01c806355a53f061461005157806361bc221a1461006d5780637acc0b201461008b578063d81ef739146100c3575b600080fd5b61006b60048036038101906100669190610c4e565b6100df565b005b610075610287565b6040516100829190610e07565b60405180910390f35b6100a560048036038101906100a09190610d83565b61028d565b6040516100ba99989796959493929190610e4b565b60405180910390f35b6100dd60048036038101906100d89190610d83565b610618565b005b6000808154809291906100f19061102f565b91905055506040518061012001604052806000548152602001878152602001868152602001858152602001848152602001838152602001828152602001600015158152602001428152506001600080548152602001908152602001600020600082015181600001556020820151816001019080519060200190610175929190610b26565b506040820151816002019080519060200190610192929190610b26565b5060608201518160030190805190602001906101af929190610b26565b5060808201518160040190805190602001906101cc929190610b26565b5060a08201518160050190805190602001906101e9929190610b26565b5060c0820151816006019080519060200190610206929190610b26565b5060e08201518160070160006101000a81548160ff02191690831515021790555061010082015181600801559050507f54738752622eabadb0a13ad49ae49a3dc52bbbb94b00273966b8f6f9afda8eec60005487878787878760004260405161027799989796959493929190610e4b565b60405180910390a1505050505050565b60005481565b60016020528060005260406000206000915090508060000154908060010180546102b690610fcc565b80601f01602080910402602001604051908101604052809291908181526020018280546102e290610fcc565b801561032f5780601f106103045761010080835404028352916020019161032f565b820191906000526020600020905b81548152906001019060200180831161031257829003601f168201915b50505050509080600201805461034490610fcc565b80601f016020809104026020016040519081016040528092919081815260200182805461037090610fcc565b80156103bd5780601f10610392576101008083540402835291602001916103bd565b820191906000526020600020905b8154815290600101906020018083116103a057829003601f168201915b5050505050908060030180546103d290610fcc565b80601f01602080910402602001604051908101604052809291908181526020018280546103fe90610fcc565b801561044b5780601f106104205761010080835404028352916020019161044b565b820191906000526020600020905b81548152906001019060200180831161042e57829003601f168201915b50505050509080600401805461046090610fcc565b80601f016020809104026020016040519081016040528092919081815260200182805461048c90610fcc565b80156104d95780601f106104ae576101008083540402835291602001916104d9565b820191906000526020600020905b8154815290600101906020018083116104bc57829003601f168201915b5050505050908060050180546104ee90610fcc565b80601f016020809104026020016040519081016040528092919081815260200182805461051a90610fcc565b80156105675780601f1061053c57610100808354040283529160200191610567565b820191906000526020600020905b81548152906001019060200180831161054a57829003601f168201915b50505050509080600601805461057c90610fcc565b80601f01602080910402602001604051908101604052809291908181526020018280546105a890610fcc565b80156105f55780601f106105ca576101008083540402835291602001916105f5565b820191906000526020600020905b8154815290600101906020018083116105d857829003601f168201915b5050505050908060070160009054906101000a900460ff16908060080154905089565b600060016000838152602001908152602001600020604051806101200160405290816000820154815260200160018201805461065390610fcc565b80601f016020809104026020016040519081016040528092919081815260200182805461067f90610fcc565b80156106cc5780601f106106a1576101008083540402835291602001916106cc565b820191906000526020600020905b8154815290600101906020018083116106af57829003601f168201915b505050505081526020016002820180546106e590610fcc565b80601f016020809104026020016040519081016040528092919081815260200182805461071190610fcc565b801561075e5780601f106107335761010080835404028352916020019161075e565b820191906000526020600020905b81548152906001019060200180831161074157829003601f168201915b5050505050815260200160038201805461077790610fcc565b80601f01602080910402602001604051908101604052809291908181526020018280546107a390610fcc565b80156107f05780601f106107c5576101008083540402835291602001916107f0565b820191906000526020600020905b8154815290600101906020018083116107d357829003601f168201915b5050505050815260200160048201805461080990610fcc565b80601f016020809104026020016040519081016040528092919081815260200182805461083590610fcc565b80156108825780601f1061085757610100808354040283529160200191610882565b820191906000526020600020905b81548152906001019060200180831161086557829003601f168201915b5050505050815260200160058201805461089b90610fcc565b80601f01602080910402602001604051908101604052809291908181526020018280546108c790610fcc565b80156109145780601f106108e957610100808354040283529160200191610914565b820191906000526020600020905b8154815290600101906020018083116108f757829003601f168201915b5050505050815260200160068201805461092d90610fcc565b80601f016020809104026020016040519081016040528092919081815260200182805461095990610fcc565b80156109a65780601f1061097b576101008083540402835291602001916109a6565b820191906000526020600020905b81548152906001019060200180831161098957829003601f168201915b505050505081526020016007820160009054906101000a900460ff1615151515815260200160088201548152505090508060e00151158160e00190151590811515815250508060016000848152602001908152602001600020600082015181600001556020820151816001019080519060200190610a25929190610b26565b506040820151816002019080519060200190610a42929190610b26565b506060820151816003019080519060200190610a5f929190610b26565b506080820151816004019080519060200190610a7c929190610b26565b5060a0820151816005019080519060200190610a99929190610b26565b5060c0820151816006019080519060200190610ab6929190610b26565b5060e08201518160070160006101000a81548160ff02191690831515021790555061010082015181600801559050507faa791b77c699d23e7e390bd7109b75830fa4b104f096fa209185109db4c9cbc5828260e00151604051610b1a929190610e22565b60405180910390a15050565b828054610b3290610fcc565b90600052602060002090601f016020900481019282610b545760008555610b9b565b82601f10610b6d57805160ff1916838001178555610b9b565b82800160010185558215610b9b579182015b82811115610b9a578251825591602001919060010190610b7f565b5b509050610ba89190610bac565b5090565b5b80821115610bc5576000816000905550600101610bad565b5090565b6000610bdc610bd784610f27565b610f02565b905082815260208101848484011115610bf857610bf761110a565b5b610c03848285610f8a565b509392505050565b600082601f830112610c2057610c1f611105565b5b8135610c30848260208601610bc9565b91505092915050565b600081359050610c488161112a565b92915050565b60008060008060008060c08789031215610c6b57610c6a611114565b5b600087013567ffffffffffffffff811115610c8957610c8861110f565b5b610c9589828a01610c0b565b965050602087013567ffffffffffffffff811115610cb657610cb561110f565b5b610cc289828a01610c0b565b955050604087013567ffffffffffffffff811115610ce357610ce261110f565b5b610cef89828a01610c0b565b945050606087013567ffffffffffffffff811115610d1057610d0f61110f565b5b610d1c89828a01610c0b565b935050608087013567ffffffffffffffff811115610d3d57610d3c61110f565b5b610d4989828a01610c0b565b92505060a087013567ffffffffffffffff811115610d6a57610d6961110f565b5b610d7689828a01610c0b565b9150509295509295509295565b600060208284031215610d9957610d98611114565b5b6000610da784828501610c39565b91505092915050565b610db981610f74565b82525050565b6000610dca82610f58565b610dd48185610f63565b9350610de4818560208601610f99565b610ded81611119565b840191505092915050565b610e0181610f80565b82525050565b6000602082019050610e1c6000830184610df8565b92915050565b6000604082019050610e376000830185610df8565b610e446020830184610db0565b9392505050565b600061012082019050610e61600083018c610df8565b8181036020830152610e73818b610dbf565b90508181036040830152610e87818a610dbf565b90508181036060830152610e9b8189610dbf565b90508181036080830152610eaf8188610dbf565b905081810360a0830152610ec38187610dbf565b905081810360c0830152610ed78186610dbf565b9050610ee660e0830185610db0565b610ef4610100830184610df8565b9a9950505050505050505050565b6000610f0c610f1d565b9050610f188282610ffe565b919050565b6000604051905090565b600067ffffffffffffffff821115610f4257610f416110d6565b5b610f4b82611119565b9050602081019050919050565b600081519050919050565b600082825260208201905092915050565b60008115159050919050565b6000819050919050565b82818337600083830152505050565b60005b83811015610fb7578082015181840152602081019050610f9c565b83811115610fc6576000848401525b50505050565b60006002820490506001821680610fe457607f821691505b60208210811415610ff857610ff76110a7565b5b50919050565b61100782611119565b810181811067ffffffffffffffff82111715611026576110256110d6565b5b80604052505050565b600061103a82610f80565b91507fffffffffffffffffffffffffffffffffffffffffffffffffffffffffffffffff82141561106d5761106c611078565b5b600182019050919050565b7f4e487b7100000000000000000000000000000000000000000000000000000000600052601160045260246000fd5b7f4e487b7100000000000000000000000000000000000000000000000000000000600052602260045260246000fd5b7f4e487b7100000000000000000000000000000000000000000000000000000000600052604160045260246000fd5b600080fd5b600080fd5b600080fd5b600080fd5b6000601f19601f8301169050919050565b61113381610f80565b811461113e57600080fd5b5056fea264697066735822122023416c33341624ba437097f215502aa58cce6da2c832053b0e79ecf7e86b4ac664736f6c63430008060033",
  "immutableReferences": {},
  "source": "// SPDX-License-Identifier: MIT\r\npragma solidity ^0.8.6;\r\n\r\ncontract productTrace { \r\n\r\n    uint256 public counter = 0;\r\n\r\n    struct Product {\r\n        uint256 id;\r\n        string product;\r\n        string amount;\r\n        string code;\r\n        string size;\r\n        string color;\r\n        string description;\r\n        bool done;\r\n        uint256 createdAt;\r\n    }\r\n\r\n    event productCreated (\r\n        uint256 id,\r\n        string product,\r\n        string amount,\r\n        string code,\r\n        string size,\r\n        string color,\r\n        string description,\r\n        bool done,\r\n        uint256 createdAt\r\n    );\r\n\r\n    event ToggledDone(uint256 id, bool done);\r\n\r\n    mapping(uint256 => Product) public products;\r\n\r\n    constructor() {\r\n        createProduct(\"Camisa\", \"5\", \"CA001\", \"XXL\", \"Azul\", \"Manga Corta\");\r\n    }\r\n\r\n    function createProduct(string memory _product, string memory _amount, string memory _code, string memory _size,\r\n    string memory _color, string memory _description) public\r\n    \r\n    {\r\n        counter++;\r\n        products[counter] = Product(\r\n            counter,\r\n            _product,\r\n            _amount,\r\n            _code,\r\n            _size,\r\n            _color,\r\n            _description,\r\n            false,\r\n            block.timestamp);\r\n            \r\n        emit productCreated(\r\n            counter, \r\n            _product,\r\n            _amount,\r\n            _code,\r\n            _size,\r\n            _color,\r\n            _description,\r\n            false,\r\n            block.timestamp);\r\n            \r\n    }\r\n\r\n    function toggleDone(uint256 _id) public {\r\n        Product memory _prod = products[_id];\r\n        _prod.done = !_prod.done;\r\n        products[_id] = _prod;\r\n        emit ToggledDone(_id, _prod.done);\r\n    }\r\n}",
  "sourcePath": "C:\\Users\\lauvm\\Downloads\\DEMO\\proyecto-blockchain\\contracts\\productTrace.sol",
  "compiler": {
    "name": "solc",
    "version": "0.8.6+commit.11564f7e.Emscripten.clang"
  },
  "schemaVersion": "3.4.16",
  "updatedAt": "2024-12-12T03:35:48.385Z",
  "networkType": "ethereum",
  "devdoc": {
    "kind": "dev",
    "methods": {},
    "version": 1
  },
  "userdoc": {
    "kind": "user",
    "methods": {},
    "version": 1
  }
}